:08000000803102288731FD2F39
:100F0E0016302100970008007230210099009801D8
:100F1E00220096010800FF3020009B009A019110DC
:100F2E0004309C0008003C30260093007F30910076
:100F3E009201CF3025009E0508008731B4278731F6
:100F4E0087318B27873187318727873187319A27DA
:100F5E008731873192278731080022008C018D015D
:100F6E00F73021008C00FF308D00FE3023008D0005
:100F7E001F308C0024008D018C012100951722005A
:100F8E009D019E0108007108F3007008F200F3360F
:100F9E00F20CF336F20C7208260091007008033939
:100FAE00F2000430F235890BD92F1308CF397204B1
:100FBE00930008008731A4278731F6016530760249
:100FCE00031CEA2FEB2FEC2FF6017608F400F50147
:100FDE007408F0007508F1008731CA278731013097
:100FEE00F4007408F607E52F8031022820008731BF
:020FFE00E12FE1
:020000040001F9
:08000000FF3FFF3FFF3FFF3F00
:04000E00E43FFF1EAE
:00000001FF
