:08000000803102288731FD2F39
:100F000016302100970008007230210099009801E6
:100F10002200960108008731952787318731842781
:100F20008731873180278731080022008C018D01AD
:100F3000F73021008C00FF308D00FE3023008D0043
:100F40001F308C0024008D018C0121009517220098
:100F50009D019E0108007108F3007008F200F3364D
:100F6000F20CF336F20C7208260091007008033977
:100F7000F2000430F235890BBA2F1308CF3972040E
:100F80009300080087318B278731083023008C00BD
:100F9000F73021008C003C30260093007F30910018
:100FA0009201CF3025009E05FF3020009B009A0162
:100FB000911004309C00F501F601750A0330031905
:100FC0007606031DE42FE52FE72FF501F6017608DD
:100FD000F1007508F0008731AB2787311A30F40033
:100FE000F830890BF12FF40BF12F00320130F507A7
:100FF0000030F63DDD2F8031022820008731C22FDE
:020000040001F9
:08000000FF3FFF3FFF3FFF3F00
:04000E00E43FFF1EAE
:00000001FF
